{
  "contractName": "CPIFeed",
  "abi": [
    {
      "inputs": [
        {
          "internalType": "address",
          "name": "_link",
          "type": "address"
        }
      ],
      "stateMutability": "nonpayable",
      "type": "constructor"
    },
    {
      "anonymous": false,
      "inputs": [
        {
          "indexed": true,
          "internalType": "bytes32",
          "name": "id",
          "type": "bytes32"
        }
      ],
      "name": "ChainlinkCancelled",
      "type": "event"
    },
    {
      "anonymous": false,
      "inputs": [
        {
          "indexed": true,
          "internalType": "bytes32",
          "name": "id",
          "type": "bytes32"
        }
      ],
      "name": "ChainlinkFulfilled",
      "type": "event"
    },
    {
      "anonymous": false,
      "inputs": [
        {
          "indexed": true,
          "internalType": "bytes32",
          "name": "id",
          "type": "bytes32"
        }
      ],
      "name": "ChainlinkRequested",
      "type": "event"
    },
    {
      "anonymous": false,
      "inputs": [
        {
          "indexed": true,
          "internalType": "address",
          "name": "from",
          "type": "address"
        },
        {
          "indexed": true,
          "internalType": "address",
          "name": "to",
          "type": "address"
        }
      ],
      "name": "OwnershipTransferRequested",
      "type": "event"
    },
    {
      "anonymous": false,
      "inputs": [
        {
          "indexed": true,
          "internalType": "address",
          "name": "from",
          "type": "address"
        },
        {
          "indexed": true,
          "internalType": "address",
          "name": "to",
          "type": "address"
        }
      ],
      "name": "OwnershipTransferred",
      "type": "event"
    },
    {
      "inputs": [],
      "name": "acceptOwnership",
      "outputs": [],
      "stateMutability": "nonpayable",
      "type": "function"
    },
    {
      "inputs": [],
      "name": "fee",
      "outputs": [
        {
          "internalType": "uint256",
          "name": "",
          "type": "uint256"
        }
      ],
      "stateMutability": "view",
      "type": "function"
    },
    {
      "inputs": [],
      "name": "inflation",
      "outputs": [
        {
          "internalType": "uint256",
          "name": "",
          "type": "uint256"
        }
      ],
      "stateMutability": "view",
      "type": "function"
    },
    {
      "inputs": [],
      "name": "jobId",
      "outputs": [
        {
          "internalType": "bytes32",
          "name": "",
          "type": "bytes32"
        }
      ],
      "stateMutability": "view",
      "type": "function"
    },
    {
      "inputs": [],
      "name": "oracle",
      "outputs": [
        {
          "internalType": "address",
          "name": "",
          "type": "address"
        }
      ],
      "stateMutability": "view",
      "type": "function"
    },
    {
      "inputs": [],
      "name": "owner",
      "outputs": [
        {
          "internalType": "address",
          "name": "",
          "type": "address"
        }
      ],
      "stateMutability": "view",
      "type": "function"
    },
    {
      "inputs": [
        {
          "internalType": "address",
          "name": "to",
          "type": "address"
        }
      ],
      "name": "transferOwnership",
      "outputs": [],
      "stateMutability": "nonpayable",
      "type": "function"
    },
    {
      "inputs": [],
      "name": "requestInflationData",
      "outputs": [
        {
          "internalType": "bytes32",
          "name": "requestId",
          "type": "bytes32"
        }
      ],
      "stateMutability": "nonpayable",
      "type": "function"
    },
    {
      "inputs": [
        {
          "internalType": "bytes32",
          "name": "_requestId",
          "type": "bytes32"
        },
        {
          "internalType": "uint256",
          "name": "_inflation",
          "type": "uint256"
        }
      ],
      "name": "fulfill",
      "outputs": [],
      "stateMutability": "nonpayable",
      "type": "function"
    },
    {
      "inputs": [],
      "name": "getChainlinkToken",
      "outputs": [
        {
          "internalType": "address",
          "name": "",
          "type": "address"
        }
      ],
      "stateMutability": "view",
      "type": "function"
    },
    {
      "inputs": [],
      "name": "withdrawLink",
      "outputs": [],
      "stateMutability": "nonpayable",
      "type": "function"
    }
  ],
  "bytecode": "0x608060405260016004553480156200001657600080fd5b50604051620018c5380380620018c583398181016040528101906200003c9190620003bd565b338060008073ffffffffffffffffffffffffffffffffffffffff168273ffffffffffffffffffffffffffffffffffffffff1603620000b1576040517f08c379a0000000000000000000000000000000000000000000000000000000008152600401620000a89062000450565b60405180910390fd5b81600660006101000a81548173ffffffffffffffffffffffffffffffffffffffff021916908373ffffffffffffffffffffffffffffffffffffffff160217905550600073ffffffffffffffffffffffffffffffffffffffff168173ffffffffffffffffffffffffffffffffffffffff161462000139576200013881620001de60201b60201c565b5b5050506200014d816200030f60201b60201c565b7317ded59fcd940f0a40462d52aacd11493c6d8073600960006101000a81548173ffffffffffffffffffffffffffffffffffffffff021916908373ffffffffffffffffffffffffffffffffffffffff1602179055507f6230346332613835313433633433303839633162656665376334316465613933600a81905550662386f26fc10000600b8190555050620004e4565b3373ffffffffffffffffffffffffffffffffffffffff168173ffffffffffffffffffffffffffffffffffffffff16036200024f576040517f08c379a00000000000000000000000000000000000000000000000000000000081526004016200024690620004c2565b60405180910390fd5b80600760006101000a81548173ffffffffffffffffffffffffffffffffffffffff021916908373ffffffffffffffffffffffffffffffffffffffff1602179055508073ffffffffffffffffffffffffffffffffffffffff16600660009054906101000a900473ffffffffffffffffffffffffffffffffffffffff1673ffffffffffffffffffffffffffffffffffffffff167fed8889f560326eb138920d842192f0eb3dd22b4f139c87a2c57538e05bae127860405160405180910390a350565b80600260006101000a81548173ffffffffffffffffffffffffffffffffffffffff021916908373ffffffffffffffffffffffffffffffffffffffff16021790555050565b600080fd5b600073ffffffffffffffffffffffffffffffffffffffff82169050919050565b6000620003858262000358565b9050919050565b620003978162000378565b8114620003a357600080fd5b50565b600081519050620003b7816200038c565b92915050565b600060208284031215620003d657620003d562000353565b5b6000620003e684828501620003a6565b91505092915050565b600082825260208201905092915050565b7f43616e6e6f7420736574206f776e657220746f207a65726f0000000000000000600082015250565b600062000438601883620003ef565b9150620004458262000400565b602082019050919050565b600060208201905081810360008301526200046b8162000429565b9050919050565b7f43616e6e6f74207472616e7366657220746f2073656c66000000000000000000600082015250565b6000620004aa601783620003ef565b9150620004b78262000472565b602082019050919050565b60006020820190508181036000830152620004dd816200049b565b9050919050565b6113d180620004f46000396000f3fe608060405234801561001057600080fd5b50600436106100a95760003560e01c80638dc654a2116100715780638dc654a21461012e5780639637259414610138578063be0522e014610156578063c2939d9714610174578063ddca3f4314610192578063f2fde38b146101b0576100a9565b8063165d35e1146100ae5780634357855e146100cc57806379ba5097146100e85780637dc0d1d0146100f25780638da5cb5b14610110575b600080fd5b6100b66101cc565b6040516100c39190610baf565b60405180910390f35b6100e660048036038101906100e19190610c3b565b6101db565b005b6100f06102ec565b005b6100fa610483565b6040516101079190610baf565b60405180910390f35b6101186104a9565b6040516101259190610baf565b60405180910390f35b6101366104d3565b005b6101406104dd565b60405161014d9190610c8a565b60405180910390f35b61015e61052b565b60405161016b9190610cb4565b60405180910390f35b61017c610531565b6040516101899190610c8a565b60405180910390f35b61019a610537565b6040516101a79190610cb4565b60405180910390f35b6101ca60048036038101906101c59190610cfb565b61053d565b005b60006101d6610551565b905090565b816005600082815260200190815260200160002060009054906101000a900473ffffffffffffffffffffffffffffffffffffffff1673ffffffffffffffffffffffffffffffffffffffff163373ffffffffffffffffffffffffffffffffffffffff161461027d576040517f08c379a000000000000000000000000000000000000000000000000000000000815260040161027490610dab565b60405180910390fd5b6005600082815260200190815260200160002060006101000a81549073ffffffffffffffffffffffffffffffffffffffff0219169055807f7cc135e0cebb02c3480ae5d74d377283180a2601f8f644edf7987b009316c63a60405160405180910390a281600881905550505050565b600760009054906101000a900473ffffffffffffffffffffffffffffffffffffffff1673ffffffffffffffffffffffffffffffffffffffff163373ffffffffffffffffffffffffffffffffffffffff161461037c576040517f08c379a000000000000000000000000000000000000000000000000000000000815260040161037390610e17565b60405180910390fd5b6000600660009054906101000a900473ffffffffffffffffffffffffffffffffffffffff16905033600660006101000a81548173ffffffffffffffffffffffffffffffffffffffff021916908373ffffffffffffffffffffffffffffffffffffffff1602179055506000600760006101000a81548173ffffffffffffffffffffffffffffffffffffffff021916908373ffffffffffffffffffffffffffffffffffffffff1602179055503373ffffffffffffffffffffffffffffffffffffffff168173ffffffffffffffffffffffffffffffffffffffff167f8be0079c531659141344cd1fd0a4f28419497f9722a3daafe3b4186f6b6457e060405160405180910390a350565b600960009054906101000a900473ffffffffffffffffffffffffffffffffffffffff1681565b6000600660009054906101000a900473ffffffffffffffffffffffffffffffffffffffff16905090565b6104db61057b565b565b6000806104f4600a5430634357855e60e01b61060d565b9050610525600960009054906101000a900473ffffffffffffffffffffffffffffffffffffffff1682600b5461063e565b91505090565b60085481565b600a5481565b600b5481565b61054561057b565b61054e8161070a565b50565b6000600260009054906101000a900473ffffffffffffffffffffffffffffffffffffffff16905090565b600660009054906101000a900473ffffffffffffffffffffffffffffffffffffffff1673ffffffffffffffffffffffffffffffffffffffff163373ffffffffffffffffffffffffffffffffffffffff161461060b576040517f08c379a000000000000000000000000000000000000000000000000000000000815260040161060290610e83565b60405180910390fd5b565b610615610ae7565b61061d610ae7565b61063485858584610838909392919063ffffffff16565b9150509392505050565b60008060045490506001816106539190610ed2565b6004819055506000634042994660e01b60008087600001513089604001518760018c6080015160000151604051602401610694989796959493929190610ffc565b604051602081830303815290604052907bffffffffffffffffffffffffffffffffffffffffffffffffffffffff19166020820180517bffffffffffffffffffffffffffffffffffffffffffffffffffffffff838183161783525050505090506106ff868386846108e8565b925050509392505050565b3373ffffffffffffffffffffffffffffffffffffffff168173ffffffffffffffffffffffffffffffffffffffff1603610778576040517f08c379a000000000000000000000000000000000000000000000000000000000815260040161076f906110cd565b60405180910390fd5b80600760006101000a81548173ffffffffffffffffffffffffffffffffffffffff021916908373ffffffffffffffffffffffffffffffffffffffff1602179055508073ffffffffffffffffffffffffffffffffffffffff16600660009054906101000a900473ffffffffffffffffffffffffffffffffffffffff1673ffffffffffffffffffffffffffffffffffffffff167fed8889f560326eb138920d842192f0eb3dd22b4f139c87a2c57538e05bae127860405160405180910390a350565b610840610ae7565b6108508560800151610100610a7d565b508385600001818152505082856020019073ffffffffffffffffffffffffffffffffffffffff16908173ffffffffffffffffffffffffffffffffffffffff16815250508185604001907bffffffffffffffffffffffffffffffffffffffffffffffffffffffff191690817bffffffffffffffffffffffffffffffffffffffffffffffffffffffff191681525050849050949350505050565b600030846040516020016108fd9291906111a6565b604051602081830303815290604052805190602001209050846005600083815260200190815260200160002060006101000a81548173ffffffffffffffffffffffffffffffffffffffff021916908373ffffffffffffffffffffffffffffffffffffffff160217905550807fb5e6e01e79f91267dc17b4e6314d5d4d03593d2ceee0fbb452b750bd70ea5af960405160405180910390a2600260009054906101000a900473ffffffffffffffffffffffffffffffffffffffff1673ffffffffffffffffffffffffffffffffffffffff16634000aea08685856040518463ffffffff1660e01b81526004016109f3939291906111d2565b6020604051808303816000875af1158015610a12573d6000803e3d6000fd5b505050506040513d601f19601f82011682018060405250810190610a369190611248565b610a75576040517f08c379a0000000000000000000000000000000000000000000000000000000008152600401610a6c906112e7565b60405180910390fd5b949350505050565b610a85610b54565b6000602083610a949190611336565b14610ac057602082610aa69190611336565b6020610ab29190611367565b82610abd9190610ed2565b91505b81836020018181525050604051808452600081528281016020016040525082905092915050565b6040518060a0016040528060008019168152602001600073ffffffffffffffffffffffffffffffffffffffff16815260200160007bffffffffffffffffffffffffffffffffffffffffffffffffffffffff1916815260200160008152602001610b4e610b54565b81525090565b604051806040016040528060608152602001600081525090565b600073ffffffffffffffffffffffffffffffffffffffff82169050919050565b6000610b9982610b6e565b9050919050565b610ba981610b8e565b82525050565b6000602082019050610bc46000830184610ba0565b92915050565b600080fd5b6000819050919050565b610be281610bcf565b8114610bed57600080fd5b50565b600081359050610bff81610bd9565b92915050565b6000819050919050565b610c1881610c05565b8114610c2357600080fd5b50565b600081359050610c3581610c0f565b92915050565b60008060408385031215610c5257610c51610bca565b5b6000610c6085828601610bf0565b9250506020610c7185828601610c26565b9150509250929050565b610c8481610bcf565b82525050565b6000602082019050610c9f6000830184610c7b565b92915050565b610cae81610c05565b82525050565b6000602082019050610cc96000830184610ca5565b92915050565b610cd881610b8e565b8114610ce357600080fd5b50565b600081359050610cf581610ccf565b92915050565b600060208284031215610d1157610d10610bca565b5b6000610d1f84828501610ce6565b91505092915050565b600082825260208201905092915050565b7f536f75726365206d75737420626520746865206f7261636c65206f662074686560008201527f2072657175657374000000000000000000000000000000000000000000000000602082015250565b6000610d95602883610d28565b9150610da082610d39565b604082019050919050565b60006020820190508181036000830152610dc481610d88565b9050919050565b7f4d7573742062652070726f706f736564206f776e657200000000000000000000600082015250565b6000610e01601683610d28565b9150610e0c82610dcb565b602082019050919050565b60006020820190508181036000830152610e3081610df4565b9050919050565b7f4f6e6c792063616c6c61626c65206279206f776e657200000000000000000000600082015250565b6000610e6d601683610d28565b9150610e7882610e37565b602082019050919050565b60006020820190508181036000830152610e9c81610e60565b9050919050565b7f4e487b7100000000000000000000000000000000000000000000000000000000600052601160045260246000fd5b6000610edd82610c05565b9150610ee883610c05565b9250827fffffffffffffffffffffffffffffffffffffffffffffffffffffffffffffffff03821115610f1d57610f1c610ea3565b5b828201905092915050565b60007fffffffff0000000000000000000000000000000000000000000000000000000082169050919050565b610f5d81610f28565b82525050565b600081519050919050565b600082825260208201905092915050565b60005b83811015610f9d578082015181840152602081019050610f82565b83811115610fac576000848401525b50505050565b6000601f19601f8301169050919050565b6000610fce82610f63565b610fd88185610f6e565b9350610fe8818560208601610f7f565b610ff181610fb2565b840191505092915050565b600061010082019050611012600083018b610ba0565b61101f602083018a610ca5565b61102c6040830189610c7b565b6110396060830188610ba0565b6110466080830187610f54565b61105360a0830186610ca5565b61106060c0830185610ca5565b81810360e08301526110728184610fc3565b90509998505050505050505050565b7f43616e6e6f74207472616e7366657220746f2073656c66000000000000000000600082015250565b60006110b7601783610d28565b91506110c282611081565b602082019050919050565b600060208201905081810360008301526110e6816110aa565b9050919050565b6000819050919050565b600061111261110d61110884610b6e565b6110ed565b610b6e565b9050919050565b6000611124826110f7565b9050919050565b600061113682611119565b9050919050565b60008160601b9050919050565b60006111558261113d565b9050919050565b60006111678261114a565b9050919050565b61117f61117a8261112b565b61115c565b82525050565b6000819050919050565b6111a061119b82610c05565b611185565b82525050565b60006111b2828561116e565b6014820191506111c2828461118f565b6020820191508190509392505050565b60006060820190506111e76000830186610ba0565b6111f46020830185610ca5565b81810360408301526112068184610fc3565b9050949350505050565b60008115159050919050565b61122581611210565b811461123057600080fd5b50565b6000815190506112428161121c565b92915050565b60006020828403121561125e5761125d610bca565b5b600061126c84828501611233565b91505092915050565b7f756e61626c6520746f207472616e73666572416e6443616c6c20746f206f726160008201527f636c650000000000000000000000000000000000000000000000000000000000602082015250565b60006112d1602383610d28565b91506112dc82611275565b604082019050919050565b60006020820190508181036000830152611300816112c4565b9050919050565b7f4e487b7100000000000000000000000000000000000000000000000000000000600052601260045260246000fd5b600061134182610c05565b915061134c83610c05565b92508261135c5761135b611307565b5b828206905092915050565b600061137282610c05565b915061137d83610c05565b9250828210156113905761138f610ea3565b5b82820390509291505056fea26469706673582212204d247cff31697d3130d6e5314be820efb2b40fe4d18fa254d1caebb0f69332ce64736f6c634300080d0033",
  "immutableReferences": {},
  "source": "pragma solidity ^0.8.7;\n\nimport \"@chainlink/contracts/src/v0.8/ChainlinkClient.sol\";\nimport \"@chainlink/contracts/src/v0.8/ConfirmedOwner.sol\";\n\ncontract CPIFeed is ChainlinkClient,ConfirmedOwner{\n    using Chainlink for Chainlink.Request;\n\n    uint256 public inflation;\n    address public oracle;\n    bytes32 public jobId;\n    uint256 public fee;\n\n    constructor(address _link) ConfirmedOwner(msg.sender){\n        setChainlinkToken(_link);\n        oracle = 0x17dED59fCd940F0a40462D52AAcD11493C6D8073;\n        jobId = \"b04c2a85143c43089c1befe7c41dea93\";\n        fee = 1 * 10 ** 16;\n    }\n\n    function requestInflationData() public returns (bytes32 requestId){\n        Chainlink.Request memory request = buildChainlinkRequest(jobId, address(this), this.fulfill.selector);\n        return sendChainlinkRequestTo(oracle, request, fee);\n    }\n\n    function fulfill(bytes32 _requestId, uint256 _inflation) public recordChainlinkFulfillment(_requestId) {\n        inflation = _inflation;\n    }\n\n    function getChainlinkToken() public view returns (address){\n        return chainlinkTokenAddress();\n    }\n\n    function withdrawLink() public onlyOwner {}\n\n}",
  "sourcePath": "/home/liam/Documents/Hackathon/Project/contracts/CPIFeed.sol",
  "compiler": {
    "name": "solc",
    "version": "0.8.13+commit.abaa5c0e.Emscripten.clang"
  },
  "schemaVersion": "3.4.6",
  "updatedAt": "2022-05-08T01:54:13.554Z",
  "devdoc": {
    "kind": "dev",
    "methods": {},
    "version": 1
  },
  "userdoc": {
    "kind": "user",
    "methods": {
      "acceptOwnership()": {
        "notice": "Allows an ownership transfer to be completed by the recipient."
      },
      "owner()": {
        "notice": "Get the current owner"
      },
      "transferOwnership(address)": {
        "notice": "Allows an owner to begin transferring ownership to a new address, pending."
      }
    },
    "version": 1
  }
}