{
  "contractName": "InflationFeed",
  "abi": [
    {
      "inputs": [
        {
          "internalType": "address",
          "name": "_link",
          "type": "address"
        }
      ],
      "stateMutability": "nonpayable",
      "type": "constructor"
    },
    {
      "anonymous": false,
      "inputs": [
        {
          "indexed": true,
          "internalType": "bytes32",
          "name": "id",
          "type": "bytes32"
        }
      ],
      "name": "ChainlinkCancelled",
      "type": "event"
    },
    {
      "anonymous": false,
      "inputs": [
        {
          "indexed": true,
          "internalType": "bytes32",
          "name": "id",
          "type": "bytes32"
        }
      ],
      "name": "ChainlinkFulfilled",
      "type": "event"
    },
    {
      "anonymous": false,
      "inputs": [
        {
          "indexed": true,
          "internalType": "bytes32",
          "name": "id",
          "type": "bytes32"
        }
      ],
      "name": "ChainlinkRequested",
      "type": "event"
    },
    {
      "anonymous": false,
      "inputs": [
        {
          "indexed": true,
          "internalType": "address",
          "name": "from",
          "type": "address"
        },
        {
          "indexed": true,
          "internalType": "address",
          "name": "to",
          "type": "address"
        }
      ],
      "name": "OwnershipTransferRequested",
      "type": "event"
    },
    {
      "anonymous": false,
      "inputs": [
        {
          "indexed": true,
          "internalType": "address",
          "name": "from",
          "type": "address"
        },
        {
          "indexed": true,
          "internalType": "address",
          "name": "to",
          "type": "address"
        }
      ],
      "name": "OwnershipTransferred",
      "type": "event"
    },
    {
      "inputs": [],
      "name": "acceptOwnership",
      "outputs": [],
      "stateMutability": "nonpayable",
      "type": "function"
    },
    {
      "inputs": [],
      "name": "fee",
      "outputs": [
        {
          "internalType": "uint256",
          "name": "",
          "type": "uint256"
        }
      ],
      "stateMutability": "view",
      "type": "function"
    },
    {
      "inputs": [],
      "name": "inflation",
      "outputs": [
        {
          "internalType": "uint256",
          "name": "",
          "type": "uint256"
        }
      ],
      "stateMutability": "view",
      "type": "function"
    },
    {
      "inputs": [],
      "name": "jobId",
      "outputs": [
        {
          "internalType": "bytes32",
          "name": "",
          "type": "bytes32"
        }
      ],
      "stateMutability": "view",
      "type": "function"
    },
    {
      "inputs": [],
      "name": "oracle",
      "outputs": [
        {
          "internalType": "address",
          "name": "",
          "type": "address"
        }
      ],
      "stateMutability": "view",
      "type": "function"
    },
    {
      "inputs": [],
      "name": "owner",
      "outputs": [
        {
          "internalType": "address",
          "name": "",
          "type": "address"
        }
      ],
      "stateMutability": "view",
      "type": "function"
    },
    {
      "inputs": [
        {
          "internalType": "address",
          "name": "to",
          "type": "address"
        }
      ],
      "name": "transferOwnership",
      "outputs": [],
      "stateMutability": "nonpayable",
      "type": "function"
    },
    {
      "inputs": [],
      "name": "requestInflationData",
      "outputs": [
        {
          "internalType": "bytes32",
          "name": "requestId",
          "type": "bytes32"
        }
      ],
      "stateMutability": "nonpayable",
      "type": "function"
    },
    {
      "inputs": [
        {
          "internalType": "bytes32",
          "name": "_requestId",
          "type": "bytes32"
        },
        {
          "internalType": "uint256",
          "name": "_inflation",
          "type": "uint256"
        }
      ],
      "name": "fulfill",
      "outputs": [],
      "stateMutability": "nonpayable",
      "type": "function"
    },
    {
      "inputs": [],
      "name": "getChainlinkToken",
      "outputs": [
        {
          "internalType": "address",
          "name": "",
          "type": "address"
        }
      ],
      "stateMutability": "view",
      "type": "function"
    },
    {
      "inputs": [],
      "name": "withdrawLink",
      "outputs": [],
      "stateMutability": "nonpayable",
      "type": "function"
    }
  ],
  "bytecode": "0x608060405260016004553480156200001657600080fd5b5060405162001adf38038062001adf83398181016040528101906200003c9190620003bd565b338060008073ffffffffffffffffffffffffffffffffffffffff168273ffffffffffffffffffffffffffffffffffffffff1603620000b1576040517f08c379a0000000000000000000000000000000000000000000000000000000008152600401620000a89062000450565b60405180910390fd5b81600660006101000a81548173ffffffffffffffffffffffffffffffffffffffff021916908373ffffffffffffffffffffffffffffffffffffffff160217905550600073ffffffffffffffffffffffffffffffffffffffff168173ffffffffffffffffffffffffffffffffffffffff161462000139576200013881620001de60201b60201c565b5b5050506200014d816200030f60201b60201c565b7317ded59fcd940f0a40462d52aacd11493c6d8073600960006101000a81548173ffffffffffffffffffffffffffffffffffffffff021916908373ffffffffffffffffffffffffffffffffffffffff1602179055507f6230346332613835313433633433303839633162656665376334316465613933600a81905550662386f26fc10000600b8190555050620004e4565b3373ffffffffffffffffffffffffffffffffffffffff168173ffffffffffffffffffffffffffffffffffffffff16036200024f576040517f08c379a00000000000000000000000000000000000000000000000000000000081526004016200024690620004c2565b60405180910390fd5b80600760006101000a81548173ffffffffffffffffffffffffffffffffffffffff021916908373ffffffffffffffffffffffffffffffffffffffff1602179055508073ffffffffffffffffffffffffffffffffffffffff16600660009054906101000a900473ffffffffffffffffffffffffffffffffffffffff1673ffffffffffffffffffffffffffffffffffffffff167fed8889f560326eb138920d842192f0eb3dd22b4f139c87a2c57538e05bae127860405160405180910390a350565b80600260006101000a81548173ffffffffffffffffffffffffffffffffffffffff021916908373ffffffffffffffffffffffffffffffffffffffff16021790555050565b600080fd5b600073ffffffffffffffffffffffffffffffffffffffff82169050919050565b6000620003858262000358565b9050919050565b620003978162000378565b8114620003a357600080fd5b50565b600081519050620003b7816200038c565b92915050565b600060208284031215620003d657620003d562000353565b5b6000620003e684828501620003a6565b91505092915050565b600082825260208201905092915050565b7f43616e6e6f7420736574206f776e657220746f207a65726f0000000000000000600082015250565b600062000438601883620003ef565b9150620004458262000400565b602082019050919050565b600060208201905081810360008301526200046b8162000429565b9050919050565b7f43616e6e6f74207472616e7366657220746f2073656c66000000000000000000600082015250565b6000620004aa601783620003ef565b9150620004b78262000472565b602082019050919050565b60006020820190508181036000830152620004dd816200049b565b9050919050565b6115eb80620004f46000396000f3fe608060405234801561001057600080fd5b50600436106100a95760003560e01c80638dc654a2116100715780638dc654a21461012e5780639637259414610138578063be0522e014610156578063c2939d9714610174578063ddca3f4314610192578063f2fde38b146101b0576100a9565b8063165d35e1146100ae5780634357855e146100cc57806379ba5097146100e85780637dc0d1d0146100f25780638da5cb5b14610110575b600080fd5b6100b66101cc565b6040516100c39190610cf2565b60405180910390f35b6100e660048036038101906100e19190610d7e565b6101db565b005b6100f06102ec565b005b6100fa610483565b6040516101079190610cf2565b60405180910390f35b6101186104a9565b6040516101259190610cf2565b60405180910390f35b6101366104d3565b005b610140610620565b60405161014d9190610dcd565b60405180910390f35b61015e61066e565b60405161016b9190610df7565b60405180910390f35b61017c610674565b6040516101899190610dcd565b60405180910390f35b61019a61067a565b6040516101a79190610df7565b60405180910390f35b6101ca60048036038101906101c59190610e3e565b610680565b005b60006101d6610694565b905090565b816005600082815260200190815260200160002060009054906101000a900473ffffffffffffffffffffffffffffffffffffffff1673ffffffffffffffffffffffffffffffffffffffff163373ffffffffffffffffffffffffffffffffffffffff161461027d576040517f08c379a000000000000000000000000000000000000000000000000000000000815260040161027490610eee565b60405180910390fd5b6005600082815260200190815260200160002060006101000a81549073ffffffffffffffffffffffffffffffffffffffff0219169055807f7cc135e0cebb02c3480ae5d74d377283180a2601f8f644edf7987b009316c63a60405160405180910390a281600881905550505050565b600760009054906101000a900473ffffffffffffffffffffffffffffffffffffffff1673ffffffffffffffffffffffffffffffffffffffff163373ffffffffffffffffffffffffffffffffffffffff161461037c576040517f08c379a000000000000000000000000000000000000000000000000000000000815260040161037390610f5a565b60405180910390fd5b6000600660009054906101000a900473ffffffffffffffffffffffffffffffffffffffff16905033600660006101000a81548173ffffffffffffffffffffffffffffffffffffffff021916908373ffffffffffffffffffffffffffffffffffffffff1602179055506000600760006101000a81548173ffffffffffffffffffffffffffffffffffffffff021916908373ffffffffffffffffffffffffffffffffffffffff1602179055503373ffffffffffffffffffffffffffffffffffffffff168173ffffffffffffffffffffffffffffffffffffffff167f8be0079c531659141344cd1fd0a4f28419497f9722a3daafe3b4186f6b6457e060405160405180910390a350565b600960009054906101000a900473ffffffffffffffffffffffffffffffffffffffff1681565b6000600660009054906101000a900473ffffffffffffffffffffffffffffffffffffffff16905090565b6104db6106be565b60006104e5610694565b90508073ffffffffffffffffffffffffffffffffffffffff1663a9059cbb338373ffffffffffffffffffffffffffffffffffffffff166370a08231306040518263ffffffff1660e01b815260040161053d9190610cf2565b602060405180830381865afa15801561055a573d6000803e3d6000fd5b505050506040513d601f19601f8201168201806040525081019061057e9190610f8f565b6040518363ffffffff1660e01b815260040161059b929190610fbc565b6020604051808303816000875af11580156105ba573d6000803e3d6000fd5b505050506040513d601f19601f820116820180604052508101906105de919061101d565b61061d576040517f08c379a000000000000000000000000000000000000000000000000000000000815260040161061490611096565b60405180910390fd5b50565b600080610637600a5430634357855e60e01b610750565b9050610668600960009054906101000a900473ffffffffffffffffffffffffffffffffffffffff1682600b54610781565b91505090565b60085481565b600a5481565b600b5481565b6106886106be565b6106918161084d565b50565b6000600260009054906101000a900473ffffffffffffffffffffffffffffffffffffffff16905090565b600660009054906101000a900473ffffffffffffffffffffffffffffffffffffffff1673ffffffffffffffffffffffffffffffffffffffff163373ffffffffffffffffffffffffffffffffffffffff161461074e576040517f08c379a000000000000000000000000000000000000000000000000000000000815260040161074590611102565b60405180910390fd5b565b610758610c2a565b610760610c2a565b6107778585858461097b909392919063ffffffff16565b9150509392505050565b60008060045490506001816107969190611151565b6004819055506000634042994660e01b60008087600001513089604001518760018c60800151600001516040516024016107d798979695949392919061127b565b604051602081830303815290604052907bffffffffffffffffffffffffffffffffffffffffffffffffffffffff19166020820180517bffffffffffffffffffffffffffffffffffffffffffffffffffffffff8381831617835250505050905061084286838684610a2b565b925050509392505050565b3373ffffffffffffffffffffffffffffffffffffffff168173ffffffffffffffffffffffffffffffffffffffff16036108bb576040517f08c379a00000000000000000000000000000000000000000000000000000000081526004016108b29061134c565b60405180910390fd5b80600760006101000a81548173ffffffffffffffffffffffffffffffffffffffff021916908373ffffffffffffffffffffffffffffffffffffffff1602179055508073ffffffffffffffffffffffffffffffffffffffff16600660009054906101000a900473ffffffffffffffffffffffffffffffffffffffff1673ffffffffffffffffffffffffffffffffffffffff167fed8889f560326eb138920d842192f0eb3dd22b4f139c87a2c57538e05bae127860405160405180910390a350565b610983610c2a565b6109938560800151610100610bc0565b508385600001818152505082856020019073ffffffffffffffffffffffffffffffffffffffff16908173ffffffffffffffffffffffffffffffffffffffff16815250508185604001907bffffffffffffffffffffffffffffffffffffffffffffffffffffffff191690817bffffffffffffffffffffffffffffffffffffffffffffffffffffffff191681525050849050949350505050565b60003084604051602001610a40929190611425565b604051602081830303815290604052805190602001209050846005600083815260200190815260200160002060006101000a81548173ffffffffffffffffffffffffffffffffffffffff021916908373ffffffffffffffffffffffffffffffffffffffff160217905550807fb5e6e01e79f91267dc17b4e6314d5d4d03593d2ceee0fbb452b750bd70ea5af960405160405180910390a2600260009054906101000a900473ffffffffffffffffffffffffffffffffffffffff1673ffffffffffffffffffffffffffffffffffffffff16634000aea08685856040518463ffffffff1660e01b8152600401610b3693929190611451565b6020604051808303816000875af1158015610b55573d6000803e3d6000fd5b505050506040513d601f19601f82011682018060405250810190610b79919061101d565b610bb8576040517f08c379a0000000000000000000000000000000000000000000000000000000008152600401610baf90611501565b60405180910390fd5b949350505050565b610bc8610c97565b6000602083610bd79190611550565b14610c0357602082610be99190611550565b6020610bf59190611581565b82610c009190611151565b91505b81836020018181525050604051808452600081528281016020016040525082905092915050565b6040518060a0016040528060008019168152602001600073ffffffffffffffffffffffffffffffffffffffff16815260200160007bffffffffffffffffffffffffffffffffffffffffffffffffffffffff1916815260200160008152602001610c91610c97565b81525090565b604051806040016040528060608152602001600081525090565b600073ffffffffffffffffffffffffffffffffffffffff82169050919050565b6000610cdc82610cb1565b9050919050565b610cec81610cd1565b82525050565b6000602082019050610d076000830184610ce3565b92915050565b600080fd5b6000819050919050565b610d2581610d12565b8114610d3057600080fd5b50565b600081359050610d4281610d1c565b92915050565b6000819050919050565b610d5b81610d48565b8114610d6657600080fd5b50565b600081359050610d7881610d52565b92915050565b60008060408385031215610d9557610d94610d0d565b5b6000610da385828601610d33565b9250506020610db485828601610d69565b9150509250929050565b610dc781610d12565b82525050565b6000602082019050610de26000830184610dbe565b92915050565b610df181610d48565b82525050565b6000602082019050610e0c6000830184610de8565b92915050565b610e1b81610cd1565b8114610e2657600080fd5b50565b600081359050610e3881610e12565b92915050565b600060208284031215610e5457610e53610d0d565b5b6000610e6284828501610e29565b91505092915050565b600082825260208201905092915050565b7f536f75726365206d75737420626520746865206f7261636c65206f662074686560008201527f2072657175657374000000000000000000000000000000000000000000000000602082015250565b6000610ed8602883610e6b565b9150610ee382610e7c565b604082019050919050565b60006020820190508181036000830152610f0781610ecb565b9050919050565b7f4d7573742062652070726f706f736564206f776e657200000000000000000000600082015250565b6000610f44601683610e6b565b9150610f4f82610f0e565b602082019050919050565b60006020820190508181036000830152610f7381610f37565b9050919050565b600081519050610f8981610d52565b92915050565b600060208284031215610fa557610fa4610d0d565b5b6000610fb384828501610f7a565b91505092915050565b6000604082019050610fd16000830185610ce3565b610fde6020830184610de8565b9392505050565b60008115159050919050565b610ffa81610fe5565b811461100557600080fd5b50565b60008151905061101781610ff1565b92915050565b60006020828403121561103357611032610d0d565b5b600061104184828501611008565b91505092915050565b7f556e61626c6520746f207472616e736665720000000000000000000000000000600082015250565b6000611080601283610e6b565b915061108b8261104a565b602082019050919050565b600060208201905081810360008301526110af81611073565b9050919050565b7f4f6e6c792063616c6c61626c65206279206f776e657200000000000000000000600082015250565b60006110ec601683610e6b565b91506110f7826110b6565b602082019050919050565b6000602082019050818103600083015261111b816110df565b9050919050565b7f4e487b7100000000000000000000000000000000000000000000000000000000600052601160045260246000fd5b600061115c82610d48565b915061116783610d48565b9250827fffffffffffffffffffffffffffffffffffffffffffffffffffffffffffffffff0382111561119c5761119b611122565b5b828201905092915050565b60007fffffffff0000000000000000000000000000000000000000000000000000000082169050919050565b6111dc816111a7565b82525050565b600081519050919050565b600082825260208201905092915050565b60005b8381101561121c578082015181840152602081019050611201565b8381111561122b576000848401525b50505050565b6000601f19601f8301169050919050565b600061124d826111e2565b61125781856111ed565b93506112678185602086016111fe565b61127081611231565b840191505092915050565b600061010082019050611291600083018b610ce3565b61129e602083018a610de8565b6112ab6040830189610dbe565b6112b86060830188610ce3565b6112c560808301876111d3565b6112d260a0830186610de8565b6112df60c0830185610de8565b81810360e08301526112f18184611242565b90509998505050505050505050565b7f43616e6e6f74207472616e7366657220746f2073656c66000000000000000000600082015250565b6000611336601783610e6b565b915061134182611300565b602082019050919050565b6000602082019050818103600083015261136581611329565b9050919050565b6000819050919050565b600061139161138c61138784610cb1565b61136c565b610cb1565b9050919050565b60006113a382611376565b9050919050565b60006113b582611398565b9050919050565b60008160601b9050919050565b60006113d4826113bc565b9050919050565b60006113e6826113c9565b9050919050565b6113fe6113f9826113aa565b6113db565b82525050565b6000819050919050565b61141f61141a82610d48565b611404565b82525050565b600061143182856113ed565b601482019150611441828461140e565b6020820191508190509392505050565b60006060820190506114666000830186610ce3565b6114736020830185610de8565b81810360408301526114858184611242565b9050949350505050565b7f756e61626c6520746f207472616e73666572416e6443616c6c20746f206f726160008201527f636c650000000000000000000000000000000000000000000000000000000000602082015250565b60006114eb602383610e6b565b91506114f68261148f565b604082019050919050565b6000602082019050818103600083015261151a816114de565b9050919050565b7f4e487b7100000000000000000000000000000000000000000000000000000000600052601260045260246000fd5b600061155b82610d48565b915061156683610d48565b92508261157657611575611521565b5b828206905092915050565b600061158c82610d48565b915061159783610d48565b9250828210156115aa576115a9611122565b5b82820390509291505056fea264697066735822122099a3c83ec9ff3dbc2fbab206876ae7afa017411d6e986a382087fe7a7f57e10564736f6c634300080d0033",
  "immutableReferences": {},
  "source": "pragma solidity ^0.8.7;\n\nimport \"@chainlink/contracts/src/v0.8/ChainlinkClient.sol\";\nimport \"@chainlink/contracts/src/v0.8/ConfirmedOwner.sol\";\n\ncontract InflationFeed is ChainlinkClient,ConfirmedOwner{\n    using Chainlink for Chainlink.Request;\n\n    uint256 public inflation;\n    address public oracle;\n    bytes32 public jobId;\n    uint256 public fee;\n\n    constructor(address _link) ConfirmedOwner(msg.sender){\n        setChainlinkToken(_link);\n        oracle = 0x17dED59fCd940F0a40462D52AAcD11493C6D8073;\n        jobId = \"b04c2a85143c43089c1befe7c41dea93\";\n        fee = 1 * 10 ** 16;\n    }\n\n    function requestInflationData() public returns (bytes32 requestId){\n        Chainlink.Request memory request = buildChainlinkRequest(jobId, address(this), this.fulfill.selector);\n        return sendChainlinkRequestTo(oracle, request, fee);\n    }\n\n    function fulfill(bytes32 _requestId, uint256 _inflation) public recordChainlinkFulfillment(_requestId) {\n        inflation = _inflation;\n    }\n\n    function getChainlinkToken() public view returns (address){\n        return chainlinkTokenAddress();\n    }\n\n    function withdrawLink() public onlyOwner {\n        LinkTokenInterface link = LinkTokenInterface(chainlinkTokenAddress());\n        require(link.transfer(msg.sender, link.balanceOf(address(this))),\"Unable to transfer\");\n    }\n\n}",
  "sourcePath": "/home/liam/Documents/Hackathon/Project/contracts/InflationFeed.sol",
  "compiler": {
    "name": "solc",
    "version": "0.8.13+commit.abaa5c0e.Emscripten.clang"
  },
  "schemaVersion": "3.4.6",
  "updatedAt": "2022-05-08T10:20:43.456Z",
  "devdoc": {
    "kind": "dev",
    "methods": {},
    "version": 1
  },
  "userdoc": {
    "kind": "user",
    "methods": {
      "acceptOwnership()": {
        "notice": "Allows an ownership transfer to be completed by the recipient."
      },
      "owner()": {
        "notice": "Get the current owner"
      },
      "transferOwnership(address)": {
        "notice": "Allows an owner to begin transferring ownership to a new address, pending."
      }
    },
    "version": 1
  }
}